:020000040000fa
:080000000002040000000000f2
:020000040000fa
:100008001a030000200300003c0300002603000040
:100018002c030000320300004003000038030000f6
:1000280038030000380300003803000038030000dc
:10003800f202000038030000380300003803000013
:1000480038030000380300003803000038030000bc
:1000580038030000c802000038030000380300001d
:10006800380300003803000038030000380300009c
:10007800380300003803000038030000380300008c
:10008800380300003803000038030000380300007c
:10009800380300003803000038030000380300006c
:020000040000fa
:100400006fad21000eff21000e01880000000000ea
:100410000c00070020962000010020000f000700bc
:10042000000020000000e000020032000000020096
:1004300000000000b00a0200000000000040da00e6
:100440000000fe00e00020000000e000020032009a
:10045000002020009001880000000600a102880012
:10046000800078000000eb001a003700e2804000b6
:1004700054a0b4009101ba00e280400054a0b4003e
:100480009102ba00e280400054a0b4000002eb00e8
:10049000472bde00f507b200a6018800602ce100c2
:1004a00008003a000049eb000201e80002003900b0
:1004b0003420ec0002f0a0008301e900f9ff3e00c7
:1004c000040037006128e100010032000082eb00e7
:1004d000040007001101ba000200e000e3ff3a0047
:1004e0000000060004d0a300e20f49001c00390000
:1004f000810278003549ba000201e80002003900a3
:100500003420ec0002f0a0008301e9000f0032006b
:100510002549ba000201e800020039003420ec004d
:1005200002f0a0008301e900080032000400e000ae
:100530000600320015c9ba000201e80002003900c5
:100540003420ec0002f0a0008301e9008180e80083
:1005500054a0b4000300e000e2ff3a0000000600ef
:100560009102ba00055978008301e900f7ff3200d3
:10057000c82ade00055978008301e900f3ff320044
:100580000400e000f1ff320011d9ba00eeff37009d
:10059000809fbe00821f78000000fa0090708000eb
:1005a0004e00de00614060000004a2006140600077
:1005b0000080fb00610060004e00dd009270800052
:1005c000f1ff2b00810061000080700090708800b6
:1005d00001a8a9000080fa004f0178004f00be007a
:1005e00000400600809fbe00821f78000000fa00d5
:1005f000907080004f00de00004078000004a200f0
:10060000614060000080fb004f00dd0092708000c0
:10061000f1ff270081006100008070009070880069
:100620000088a9000080fa004f0178004f00be004a
:10063000004006000000fa00c028a900ffff3700b4
:100640000000fa00c068a900ffff37000000fa00b0
:10065000c048a900ffff37000000fa00c088a900c9
:10066000ffff37000000fa00c0a8a900ffff370015
:100670000000fa00ffff37000000fa00ffff37001c
:100680000000fa00ffff370003f0a200889fbe00c1
:100690008a9fbe008c1f7800fa000700010133001a
:1006a0006450e1004f0032006420e100520032004b
:1006b00003826c0007003b000905d0000306d00050
:1006c000820f54000c065d00020039000200320067
:1006d00089017800030678008582550004003d00fa
:1006e0000003fd008103fd008502ea008b854200c6
:1006f000840f720002003b0060001000e0801800d0
:100700006011b8000005eb007a28e1000a0039000a
:1007100006007800c75ddd00f707b200878075002e
:100720002d003700828171000a01780061056000a8
:100730008180d1000080d3008502e900f9ff3b00f1
:10074000060440008784480002003b006004140057
:10075000e0841c000988a300070032008a81710030
:1007600082817100610164008904d1000884d30092
:100770008b05e800170037000978a30013003a0042
:100780000b00e000130034008b05e900080444006e
:1007900089844c000a4474000978a3000d003a00d3
:1007a0000b00e000070034008b05e900080444005a
:1007b00089844c0001003a000b0020000978a30056
:1007c000f7ff32000001eb00020037008281710068
:1007d0000a017800700007000cf0a70001f0a000eb
:1007e000b90037006420e10002003a00838f6c00fa
:1007f000b90033000801be000200be00b20037009d
:10080000889fbe008a9fbe008c1f78009d00070055
:10081000a400330003866c006450e1002e00320017
:100820006420e100330032006150e1002f0032000b
:100830006120e1003100320085855500eb07b000f2
:1008400009002000080420000500370008044400c7
:1008500089844c000a0031000603430087834b0063
:100860000001530081815b00f8ff33000203be00ea
:100870000800a0000804440089844c00f6ff3900f9
:10088000c639dd008301730001003200130020002f
:100890008904d1000884d3000998a3000500320020
:1008a0000800a7000300a0008904d1000884d30039
:1008b0008b05e8008904d1000884d3000001eb0017
:1008c0000281d2003400070001f0a1000cf0a70063
:1008d00001f0a0007c0037006420e1007e003200bf
:1008e0000801be000200be00f7ff37006120e100f2
:1008f000790032006000b800f3ff370000002000ec
:1009000001f82700f0ff370014002000a90037008d
:10091000f4ff2f00a70037000001be0044000700cd
:100920000470a70003f0a10003f8a30013003a002d
:100930006509b10010003200090035006928e100a6
:100940000200350001002800000005000000400002
:10095000818048008502e900fcff3a0000000600a3
:10096000f88f4200050035008100d1000080d300df
:100970008502e800fcff3a00000006008000eb0062
:10098000000005004f89de0082017800a4003700d6
:100990006011b800b200370081002000618055006e
:1009a0000b003d000b00200061fe2f000100e10064
:1009b0001d00340082817100610164008904d1004e
:1009c0000884d3000000e800faff3a00710020001c
:1009d0006100640003007000020060000900320042
:1009e00061044400e0844c000988a5000500320041
:1009f0008b05e8006808e10002003a008904d10094
:100a00000884d300f20f20000258e10005003d00e9
:100a1000c75ddd00f907b200898075000800780025
:100a2000000006000bf827008b007800000005008e
:100a3000c70ade00f107b200f50fb200080032006d
:100a4000e1cf4200020032000170a0002400050046
:100a5000810f700001003200040805004400050009
:100a6000810f700002003a00140005008502e900c1
:100a70000000400081c04800fcff3b000170a00066
:100a8000240005000004be00e9ff07000003be00cb
:100a90000405be000200be00e5ff0700844f75009c
:100aa000000006000200be006450e10005003600b0
:100ab0006420e100020036000968a30001003a004a
:100ac0000800be000160a0004f0678004f05be0080
:100ad0004f04be0000000600f0ff2f00f1ff2700ca
:100ae000f9ff3700889fbe008a9fbe008c1f7800e8
:100af000e4ff0700ebff330003866c006450e10065
:100b0000240032006420e100270032006150e1003f
:100b1000220032006120e100210032008b8542007a
:100b2000eb07b1000134b800003ab80008044200f5
:100b300089844a00013ab8000030b800888040003b
:100b400009014a0004003300000040008180480091
:100b5000020149008b05e900c909dd00830170002d
:100b60000100320013002000c814de004814dd002c
:100b70004709de001200b200c808de0008847000d9
:100b800085ff070001f0a1000cf0a70001f0a00014
:100b9000cdff37006120e100cfff32000801be0029
:100ba0000200be00f7ff37006150e100fcff3a0091
:100bb000c9ff3700889fbe008a9fbe00841f78004f
:100bc000b0ff07004f00780011003300f0ff2f0046
:100bd000838f6c0006003b00040565000a00a70037
:100be0000800370009f0a6001000200008003700b8
:100bf000820f5400838f5c00030039001000200036
:100c000001003e000000200009f0a7000000ea00fb
:100c10004f05be004f04be000000e00000000600cb
:100c2000881f7800030478000300e00007003d00ff
:100c300060001000e080180060011900e0811900d8
:100c400002003b0001f02d00030037000400070004
:100c500008f0a70001f0a0004f0478000000060093
:100c6000889fbe008a9fbe0000827000040271004f
:100c700004827100260032000004be000200be00a3
:100c80006011b8006b092000950220000182cf009e
:100c90000a0039000541b1000082cf000700390089
:100ca0000541b1000982cf00040039000541b100bf
:100cb0000882cf00010039000541b1000542520011
:100cc000120032000a003b00828171006101640061
:100cd0008100d1000080d3008984d3000884d30030
:100ce0008b05e8000442e800f7ff3a0007003700f0
:100cf0000804440089844c000000480081804800ba
:100d00008b05e9000442e900f9ff3a0022ff0700e1
:0c0d10004f05be004f04be0000000600ae
:020000040000fa
:100d1c00486f00006c610000204d0000756e0000f3
:0c0d2c00646f0000210000002d0000009a
:020000040000fa
:100d38001a00fa00889fbe00100f9800210f980033
:100d4800320f9800430f98006000b800008fbe0073
:100d58006000b80020079800310798006000b800cc
:100d6800008fbe006000b800200798003107980087
:100d78000000eb00600798005e0037006e009000ee
:100d8800000040009e08900000804000100078009d
:100d980001002000fcfe07000004be003e08900091
:100da800cf80de00f5fe07000001be000800be008f
:100db80033fe070070079800010f98007e0090002e
:100dc8008e08900000c0880011c088007e01900045
:100dd8008e0990007e0090008e0890003fff07006b
:100de8000001be001e00be0026fe0700008fbe00e8
:100df8006e009000e00f50003700340018c0b300b8
:100e08006011b8007e0090008e089000befe0700ba
:100e1800e00f500001003c000044eb00e04f54009c
:100e28001200320018c0b3006011b8004e009000e4
:100e3800de009000b2fe0700e00f50000100350010
:100e48000044eb00e04f540008003200020020008c
:100e580003f823002e009000be00900009fe070052
:100e680020079800310798001b00370018c0b3000e
:100e78006011b8007e0090008e089000a0fe070068
:100e8800e00f5000010035000044eb00e04f540033
:100e98001100320018c0b3006011b8004e00900075
:100ea800de00900098fe0700e00f500001003c00b3
:100eb8000044eb00e04f540007003200020020001d
:100ec80003f823002e009000be009000edfd0700ff
:100ed80020079800310798007e0090008e08900047
:100ee80040079800510798006e0090000000e80045
:100ef80060079800ee009000f0072000808f5000f7
:100f08009eff340002002400c36124001e00be00be
:100f18007dfe07001e00be004f04be000080fa00e0
:100f2800000006000a00fa00300798004107980000
:100f38000000eb00000f78006000b8001007980070
:100f4800210798000e0037001e00780000004000be
:100f5800be009000008040001000780001002000d2
:100f680089fe07000001be001e009000ae00900040
:100f7800c4fd070010079800210798001e0fe8001d
:100f8800f00720009e007800808f5000eeff3400ac
:100f980002002000033024001e009000ae009000e4
:100fa80015fe070010079800210798004e009000d2
:100fb800e00f500006003a001e009000ae009000be
:100fc80053fe07000000780020d088001700370083
:100fd8004e009000e10f500006003a001e009000fd
:100fe800ae0090004afe07000000780030d088006c
:100ff8000e0037004e009000e20f500006003a0045
:101008001e009000ae00900041fe0700000078002e
:1010180040d08800050037001e009000ae00900008
:101028003bfe07000000780050d088000080fa00de
:10103800000006000000fa0010eea800110ea9003a
:101048001f0ea90061378000f00f28008080600023
:101058000070220000807000603788003134800002
:1010680000fc2f00008060000000a00030348800e1
:101078002002a9000111800090ff2f00008060006d
:101088000010a0000011880020a2a9002062a90079
:10109800400120004011880023a2a90023e2a900f2
:1010a8002188a90021e2a8002342a800c90009005c
:1010b8000000000010062000201188000080fa00bf
:1010c800000006000000fa0011cea90011eea900e8
:1010d8002143a90001198000f0cf2f000080600093
:1010e8000019880011198000f0cf2f00808060005f
:1010f800002020000080700010198800111980005d
:10110800f0ff210000806000101988002343a90027
:101118003119800090ff2f0000806000301988008e
:101128002603a90028e3a9004119800000fe2f002a
:10113800008060003000b3004019880025e3a90052
:1011480010cab30024e3b700000ea800002ea800c0
:10115800100ea800102ea8000e0ea8000e2ea80033
:101168001e0ea8001e2ea8002043a8002083a90058
:1011780001198000000e200000807000001988000e
:101188000108a9002108a9002063a8000a00070097
:1011980021a8a80031428000f0f82f00808060006c
:1011a800000520000080700030428800c3e8a800d5
:1011b8000080fa00000006000000fa00000021008c
:1011c800205888000000eb003058880000402100bb
:1011d800405888000000eb005058880001588000f3
:1011e800f0fc2f008080600000022000008070006a
:1011f8000058880001cba90001aba9002183a900f0
:101208001119800030f82f0000806000c000b30082
:1012180010198800901980007000b3009019880098
:101228003303a800018ba90001588000c0ff2f00dc
:10123800008060000010a0000058880000302000e6
:10124800605888007158800000002c008080600081
:10125800f07f20000080700070588800d0002000c7
:10126800105888000088a9002088a80001eba80071
:101278000080fa00000006000600fa001007980037
:10128800210798000000eb00000f780002003700eb
:10129800000000001e0fe8001e0078006101b90080
:1012a8001e009000ae009000800f5100818f590001
:0c12b800f7ff35000080fa00000006007f
:020000040000fa
:1012c400001a0000ae0000008200000000000000d0
:1012d400000000000000000000000000000000000a
:1012e40000000000000000000000000000000000fa
:1012f40000000000000000000000000000000000ea
:1013040000000000000000000000000000000000d9
:1013140000000000000000000000000000000000c9
:1013240000000000000000000000000000000000b9
:1013340000000000000000000000000000000000a9
:101344000000000000000000000000000000000099
:101354000000000000000000000000000000000089
:101364000000000000000000000000000000000079
:101374000000000000000000000000000000000069
:101384000000000000000000000000000000000059
:101394000000000000000000000000000000000049
:1013a4000000000000000000000000000000000039
:1013b4000000000000100000000400008000000095
:1013c400001400000004000080000000ae1a0000b9
:1013d400280000008200000000000000000000005f
:1013e40000000000000000000000000000494f0061
:1013f400da21fc0003c33d00013fcf003e013f0062
:10140400cf3efc0003c33d00494fda002100000039
:10141400001800000002000080000000000000002e
:020000040000fa
:101424000600fa00200798000000eb00000f780087
:101434000000eb0010079800120037001111800023
:101444000010200000806000e00f50000700320010
:101454001e007800ae00900000804000104078002c
:101464000000fb00201188001e0fe8000008200087
:101474009e007800808f500002003400100020008d
:10148400100798001e007800ae0090000080400015
:1014940010407800e04f5000030032001e0090001e
:1014a400e00f5000e5ff32001e0090000080fa00bb
:1014b400000006000400fa00100798000000eb008a
:1014c400000f78001e009000e00f500005003d0062
:1014d400a0692800d2ff07001e0090000000ea0067
:1014e400100798001e0078000080fa000000060033
:1014f4000000fa0040a7a900213a8000f08f2f00d5
:1015040000806000203a88004567a900213a8000e5
:10151400f0ff280000806000203a8800313a800003
:1015240000e02f00808060009002200000807000a6
:10153400303a8800213a800000fe2f0000806000cd
:10154400203a8800213a8000f0f32f0000806000e8
:10155400203a88000080fa00000006000200fa0029
:10156400e3ff0700d8fe0700b3fe07000000eb000e
:10157400000f78000400370000532700010020000a
:101584003eff07001e0fe800300620009e00780092
:10159400808f5000f8ff340021e3a80013e1a80075
:1015a400e06828009eff0700fdff37000600fa00f0
:1015b400000f780011079800220798000080fa00b5
:0415c400000006001d
:020000040000fa
:04afe000ceff0000a0
:020000040000fa
:04afe4000fff00005b
:020000040000fa
:04afe80000ff000066
:020000040000fa
:04afec001bff000047
:020000040000fa
:04aff00039ff000025
:020000040000fa
:04aff400ffff00005b
:00000001FF
